S011000045626F775F4D61696E2E73726563A2
S11300000C94E5020C9418140C9445140C940D03F0
S11300100C940D030C940D030C940D030C940D031C
S11300200C940D030C940D030C940D030C940D030C
S11300300C940D030C940D030C940D030C940D03FC
S11300400C94490E0C940D030C94EE110C9426128E
S11300500C940D030C940D030C940D030C940D03DC
S11300600C940D030C940D0300000000003E5B4F44
S11300705B3E3E6B4F6B3E1C3E7C3E1C183C7E3C04
S1130080181C577D571C1C5E7F5E1C00183C180012
S1130090FFE7C3E7FF0018241800FFE7DBE7FF30A2
S11300A0483A060E2629792926407F050507407F10
S11300B005253F5A3CE73C5A7F3E1C1C08081C1C83
S11300C03E7F14227F22145F5F005F5F06097F0179
S11300D07F006689956A606060606094A2FFA29464
S11300E008047E040810207E201008082A1C080832
S11300F01C2A08081E101010100C1E0C1E0C303880
S11301003E3830060E3E0E06000000000000005F80
S113011000000007000700147F147F14242A7F2A9C
S1130120122313086462364956205000080703005E
S1130130001C2241000041221C002A1C7F1C2A08AA
S1130140083E08080080703000080808080800000D
S113015060600020100804023E5149453E00427F81
S1130160400072494949462141494D331814127FD0
S11301701027454545393C4A494931412111090770
S11301803649494936464949291E000014000000F1
S113019040340000000814224114141414140041C3
S11301A022140802015909063E415D594E7C121180
S11301B0127C7F494949363E414141227F414141B8
S11301C03E7F494949417F090909013E4141517333
S11301D07F0808087F00417F41002040413F017FA4
S11301E0081422417F404040407F021C027F7F046C
S11301F008107F3E4141413E7F090909063E4151B5
S1130200215E7F09192946264949493203017F01A4
S1130210033F4040403F1F2040201F3F4038403FA5
S1130220631408146303047804036159494D4300BB
S11302307F4141410204081020004141417F0402F2
S11302400102044040404040000307080020545489
S113025078407F2844443838444444283844442867
S11302607F385454541800087E090218A4A49C78BA
S11302707F0804047800447D40002040403D007F16
S11302801028440000417F40007C047804787C08F6
S11302900404783844444438FC18242418182424CA
S11302A018FC7C08040408485454542404043F44AF
S11302B0243C4040207C1C2040201C3C4030403CDE
S11302C044281028444C9090907C4464544C44003E
S11302D008364100000077000000413608000201A2
S11302E00204023C2623263C1EA1A161123A40408E
S11302F0207A38545455592155557941225454780B
S113030042215554784020545579400C1E527212A3
S1130310395555555939545454593955545458002C
S113032000457C410002457D420001457C407D1230
S113033011127DF0282528F07C5455450020545492
S11303407C547C0A097F4932494949323A4444443D
S11303503A324A4848303A4141217A3A4240207878
S1130360009DA0A07D3D4242423D3D4040403D3C79
S113037024FF2424487E4943662B2FFC2F2BFF099E
S113038029F620C0887E0903205454794100004492
S11303907D413048484A32384040227A007A0A0A7D
S11303A0727D0D19317D2629292F282629292926F0
S11303B030484D4020380808080808080808382F35
S11303C010C8ACBA2F102834FA00007B00000814BF
S11303D02A142222142A14085500550055AA55AA95
S11303E055AAFF55FF55FF000000FF00101010FF35
S11303F000141414FF001010FF00FF1010F010F090
S1130400141414FC001414F700FF0000FF00FF1480
S113041014F404FC141417101F10101F101F1414CC
S1130420141F00101010F0000000001F1010101016
S11304301F10101010F010000000FF10101010100A
S113044010101010FF10000000FF140000FF00FF48
S113045000001F10170000FC04F4141417101714E4
S113046014F404F40000FF00F71414141414141406
S1130470F700F7141414171410101F101F14141479
S1130480F4141010F010F000001F101F0000001FE3
S113049014000000FC140000F010F01010FF10FF16
S11304A0141414FF141010101F00000000F010FFAB
S11304B0FFFFFFFFF0F0F0F0F0FFFFFF000000008F
S11304C000FFFF0F0F0F0F0F3844443844FC4A4A13
S11304D04A347E02020606027E027E0263554941C8
S11304E0633844443C04407E201E2006027E0202FF
S11304F099A5E7A5991C2A492A1C4C7201724C3013
S11305004A4D4D303048784830BC625A463D3E49E9
S11305104949007E0101017E2A2A2A2A2A44445F8D
S1130520444440514A444040444A51400000FF0181
S113053003E080FF000008086B6B0836123624368F
S1130540060F090F060000181800000010100030F4
S113055040FF0101001F01011E00191D1712003C7C
S11305603C3C3C0000000000446F6E652100546573
S11305707374200000000008000201000003040757
S11305800000000000000000010204081020408068
S113059001020408102001020408102004040404C9
S11305A00404040402020202020203030303030319
S11305B000000000250028002B000000000024009B
S11305C027002A00B80B4C12BB1211241FBECFEF18
S11305D0D8E0DEBFCDBF11E0A0E0B1E0ECECFAE280
S11305E002C005900D92AE3FB107D9F722E0AEEFFD
S11305F0B1E001C01D92AE3DB207E1F712E0C5EED5
S1130600D2E004C02197FE010E945915C23ED107D1
S1130610C9F70E94AC100C9464150C9400002F923E
S11306203F924F925F926F927F928F929F92AF927E
S1130630BF92CF92DF92EF92FF920F931F93CF93CB
S1130640DF9300D000D0CDB7DEB75C017C836B8331
S11306506A014901FA82E982C801841B950B9C0155
S113066022F422273327281B390BA4018B819C8178
S1130670481B590BCA01992324F488279927841B02
S1130680950B51E040E0821793070CF050E0652E83
S1130690742E6114710459F0982D892D4801092F85
S11306A0182F9B818C81DC82CB82C92ED82EAB8102
S11306B0BC818A169B060CF045C09C2D8D2D6801CB
S11306C0092F182F9B818C819C828B82892E982ED6
S11306D039C0EB81FC818E169F060CF44EC00FEFDF
S11306E01FEF02C001E010E06114710471F0D50144
S11306F0ED91FC910480F581E02D29813A814B81B3
S11307005C81B601C50109950DC0D501ED91FC913F
S11307100480F581E02D29813A81A6016B817C81D9
S1130720C5010995E418F50822F4C00ED11EE20CA7
S1130730F31CEB81FC813196FC83EB838E169F06C0
S11307409CF61BC014018B819C81281A390AC801AC
S11307508C199D092C0122F444245524481A590A61
S1130760710133201CF49FEFE91AF90AF594E79418
S1130770C016D1060CF4B6CFACCF0F900F900F90EB
S11307800F90DF91CF911F910F91FF90EF90DF9029
S1130790CF90BF90AF909F908F907F906F905F901D
S11307A04F903F902F9008956F927F928F929F92D7
S11307B0AF92BF92CF92DF92EF92FF920F931F936B
S11307C0CF93DF93EC014B015A0169013801E881B1
S11307D0F9810284F385E02D87010995E881F98187
S11307E0A501460D571D415051090284F385E02DA2
S11307F09601B401CE010995E881F9810084F1855F
S1130800E02D9301A501B401CE010995E881F98198
S1130810C80CD91CB601615071090084F185E02D22
S11308209301A501CE010995DF91CF911F910F91FD
S1130830FF90EF90DF90CF90BF90AF909F908F90FC
S11308407F906F900895EF92FF920F931F9378011A
S1130850DC01ED91FC91240F351F89010150110930
S11308600680F781E02D9B0109951F910F91FF9060
S1130870EF900895EF92FF920F931F93DC01ED9197
S1130880FC91260F371F215031090680F781E02D96
S113089078018A0109951F910F91FF90EF900895B7
S11308A06F927F928F929F92AF92BF92CF92DF927C
S11308B0EF92FF920F931F93CF93DF936C01EB01A1
S11308C04A01580137017B01E20EF31E6E157F05C4
S11308D084F4D601ED91FC910084F185E02D83012F
S11308E09501A401BE01C60109952196CE15DF0527
S11308F084F3DF91CF911F910F91FF90EF90DF90E0
S1130900CF90BF90AF909F908F907F906F900895FD
S1130910EF92FF920F931F93DC01ED91FC911197DD
S11309201A960D911C911B9718962D913C9119972D
S11309300684F785E02D7B0140E050E060E070E044
S113094009951F910F91FF90EF9008950895FC0170
S11309501382128282E191E09183808375836483A0
S1130960578346837187608753874287158A158624
S113097014861786168681E0848B2FEF3FEF338B26
S1130980228B318B208B868B178A08952F923F926E
S11309904F925F926F927F928F929F92AF92BF928B
S11309A0CF92DF92EF92FF920F931F93CF93DF9337
S11309B0CDB7DEB762970FB6F894DEBF0FBECDBFDA
S11309C05C011801FD82EC82CB82DC0118968D91CA
S11309D09C911997681779070CF0D1C01A968D91DC
S11309E09C911B97481759070CF0C9C0EC2DF0E0F7
S11309F0FA83E983CF01880F991F8E0F9F1F880FF9
S1130A00991F860F971F01970AF4B9C0CF01880F69
S1130A10991F880F991F880F991F840F951F01979D
S1130A200AF4ADC057968C91811103C0203B08F0A5
S1130A302F5F30E0C901880F991F880F991F280F75
S1130A40391F8B81682E712C798768877B876A8729
S1130A501C86D901A61BB70BB88BAF874D875E8761
S1130A604A01B8E08B0E911C2401EC85E53009F4B1
S1130A7078C0EF85F88988859985E80FF91FE859CA
S1130A80FF4F14916FC0B0FE24C09B81913079F464
S1130A90A989BA89ED91FC9111970480F581E02D23
S1130AA09101A60168857985CD0109953CC0A98984
S1130AB0BA89ED91FC9111970684F785E02D7101B7
S1130AC009811A819801A4016E817F81CD01099564
S1130AD02AC0EC81FD81E215F30529F1FB81F13097
S1130AE081F4A989BA89ED91FC9111970480F5816B
S1130AF0E02D2C813D81A60168857985CD0109957C
S1130B0012C0A989BA89ED91FC9111970684F785E1
S1130B10E02DEC80FD8009811A819801A4016E8189
S1130B207F81CD010995B694860C971CBFEFCB1A33
S1130B30DB0AC414D50409F0A6CFA988BA88EC85C9
S1130B40EF5FEC878A859B85860D971D9B878A8737
S1130B50A885B9851196B987A887E63009F085CFAD
S1130B600EC010E0BA85BE83EB85EF838D849E842E
S1130B70C82CD92CC501B12E9A8B898B84CF62964F
S1130B800FB6F894DEBF0FBECDBFDF91CF911F919A
S1130B900F91FF90EF90DF90CF90BF90AF909F9018
S1130BA08F907F906F905F904F903F902F9008951B
S1130BB0CF92EF92FF920F931F93CF93DF936A30FC
S1130BC079F4FC01448926853785F8E04F9F200D90
S1130BD0311D1124FC0137872687158614863CC0F5
S1130BE06D30D1F1262FEC01EA88FB880889198938
S1130BF04E855F856C857D85CC880E94C6042C89D2
S1130C0030E0C901880F991F820F931F880F991F25
S1130C104C855D85840F951F9D878C874E89442361
S1130C20D9F04AEF4203B001439F700D1124488567
S1130C305985460F571F4817590774F4220F331F5D
S1130C40220F331F220F331F8E859F85280F391FD4
S1130C503F872E871D861C8681E090E0DF91CF912F
S1130C601F910F91FF90EF90CF900895FC0175872D
S1130C706487578746870895611101C061E0FC01CC
S1130C80648B0895FC01738B628B718B608B089568
S1130C90EF92FF920F931F93DC01ED91FC9111975A
S1130CA01A960D911C911B9718962D913C911997AA
S1130CB00684F785E02D7B0140E050E060E070E0C1
S1130CC009951F910F91FF90EF900895FF920F9354
S1130CD01F93CF93DF93EC01F62E042F122F40E4E1
S1130CE051E060EF70E00E94A7048AE291E09983EA
S1130CF08883FCA20DA31EA381E0898F19A61FA2DD
S1130D00DF91CF911F910F91FF900895FC01818D88
S1130D10882329F06EBD0DB407FEFDCF089548E089
S1130D2050E020E8822F862339F0A28DB38D9C9168
S1130D3082A5892B8C9307C0A28DB38D9C9182A52B
S1130D40809589238C93A48DB58D9C9183A5892B43
S1130D508C93A48DB58D9C9183A5809589238C93C8
S1130D60269541505109F1F60895CF93DF93EC0194
S1130D70EE8DFF8D90818DA5809589238083EC8DE8
S1130D80FD8D90818BA5809589238083EAA1FBA1A9
S1130D9090818CA5809589238083CE010E9486064C
S1130DA0EAA1FBA190818CA5892B8083DF91CF914F
S1130DB00895611102C060E201C061E20E94B506BB
S1130DC00895CF93DF93EC01EE8DFF8D90818DA577
S1130DD0892B8083EC8DFD8D90818BA58095892353
S1130DE08083EAA1FBA190818CA5809589238083CF
S1130DF0CE010E948606EAA1FBA190818CA5892BD5
S1130E008083DF91CF910895CF93DF93EC0161E06C
S1130E108EA10E94C71460E08EA10E94061561E0B5
S1130E208DA10E94C71461E08CA10E94C7142CA15B
S1130E3030E0F901E456FA4FE491F0E0EE0FFF1FC1
S1130E40E055FA4F859194919BA38AA34DA150E05C
S1130E50FA01E456FA4F8491E82FF0E0EE0FFF1FF9
S1130E60E055FA4F859194919F8F8E8FF901E85741
S1130E70FA4FE491ECA7FA01E857FA4FE491EDA791
S1130E80898D882379F00E94E2138CB58C7F8CBD08
S1130E908DB581608DBD8CB58F7D8CBD8CB5837F08
S1130EA08CBD40C061E089A50E94C71461E08FA198
S1130EB00E94C71460E088A50E94C71489A590E029
S1130EC0FC01E456FA4FE491F0E0EE0FFF1FE05509
S1130ED0FA4FA591B491BD8FAC8F2FA130E0F901E9
S1130EE0E456FA4FE491F0E0EE0FFF1FE055FA4F9D
S1130EF0459154915B8F4A8FFC01E857FA4F8491D6
S1130F008BA7F901E857FA4FE491EAA79C91E82FDF
S1130F10E095E923EC93EA8DFB8D90818AA5809579
S1130F208923808361E08EA10E9406158FE19EE4EF
S1130F300197F1F700C0000060E08EA10E94061541
S1130F409FEF29EF80E0915020408040E1F700C0FE
S1130F50000061E08EA10E9406159FEF22E587E064
S1130F60915020408040E1F700C000006FEECE01B8
S1130F700E94B50663E0CE010E94E10660E8CE015E
S1130F800E94E10662E0CE010E94E1066FECCE0110
S1130F900E94B50660E0CE010E94E10661ECCE013C
S1130FA00E94E10660E3CE010E94E1066DEECE01EF
S1130FB00E94B50664E6CE010E94E10663E0CE011C
S1130FC00E94E10662E1CE010E94E10661E8CE01E1
S1130FD00E94E10668EECE010E94B50665E8CE01E6
S1130FE00E94E10660E0CE010E94E10668E7CE01BE
S1130FF00E94E1066BECCE010E94B50669E3CE01C6
S11310000E94E1066CE2CE010E94E10660E0CE019E
S11310100E94E10664E3CE010E94E10662E0CE0193
S11310200E94E10667EFCE010E94B50660E2CE01A0
S11310300E94E1066AEECE010E94B50660E0CE0190
S11310400E94E10660E0CE010E94E10660ECCE0160
S11310500E94B50663E2CE010E94E10661ECCE0176
S11310600E94B50660E1CE010E94E10665ECCE0166
S11310700E94B5066EE3CE010E94E10668E2CE014D
S11310800E94E10667ECCE010E94B50666E8CE0137
S11310900E94E10666E3CE010E94B50668E4CE0133
S11310A00E94E1066AE3CE010E94B50665E5CE0121
S11310B00E94E10661EBCE010E94B50660E0CE011C
S11310C00E94E10668E1CE010E94E10666EBCE01D2
S11310D00E94B50668E0CE010E94E10662E8CE01F6
S11310E00E94E10667E2CE010E94E10662EFCE01B2
S11310F00E94B50660E0CE010E94E10666E2CE01E0
S11311000E94B50661E0CE010E94E10660EECE01C8
S11311100E94B5066FE0CE010E94E10661E3CE01B4
S11311200E94E1066BE2CE010E94E1066CE0CE0172
S11311300E94E1066EE0CE010E94E10668E0CE0165
S11311400E94E1066EE4CE010E94E10661EFCE0149
S11311500E94E10667E3CE010E94E10667E0CE014A
S11311600E94E10660E1CE010E94E10663E0CE0147
S11311700E94E1066EE0CE010E94E10669E0CE0124
S11311800E94E10660E0CE010E94E10661EECE011C
S11311900E94B50660E0CE010E94E1066EE0CE0139
S11311A00E94E10664E1CE010E94E10663E0CE0103
S11311B00E94E10661E1CE010E94E10667E0CE01F2
S11311C00E94E10661E3CE010E94E10661ECCE01DA
S11311D00E94E10668E4CE010E94E10668E0CE01C7
S11311E00E94E1066FE0CE010E94E1066CE0CE01B0
S11311F00E94E10661E3CE010E94E10666E3CE01AE
S11312000E94E1066FE0CE010E94E10661E1CE0199
S11312100E94B5069FEF2BED85E091502040804061
S1131220E1F700C0000069E2CE010E94B506DF913B
S1131230CF910895AF92BF92CF92DF92EF92FF9237
S11312400F931F93CF93DF93EC01B62EA72EF42EAA
S1131250E52ED22EC32E6AE20E94B5066A2DCE0177
S11312600E94E1066B2DCE010E94E1066C2DCE0199
S11312700E94E1066D2DCE010E94E1066BE2CE01D3
S11312800E94B5066E2DCE010E94E1066F2DCE019F
S11312900E94E106612FCE010E94E106602FCE017B
S11312A00E94E1066CE2CE010E94B506DF91CF9167
S11312B01F910F91FF90EF90DF90CF90BF90AF9070
S11312C00895EF92FF920F931F93CF93DF937723A9
S11312D0BCF1DC011896ED91FC9119976E177F070C
S11312E07CF555236CF11A96ED91FC911B974E17E2
S11312F05F0734F5E32EF22EEC018A010F5F1F4FD6
S11313009B012F5F3F4F0E941A09EE8DFF8D908144
S11313108DA5892B8083EAA1FBA190818CA5809562
S1131320892380836E2DCE010E9486066F2DCE0107
S11313300E948606EAA1FBA190818CA5892B80835B
S1131340DF91CF911F910F91FF90EF900895CF926D
S1131350DF92EF92FF920F931F93CF93DF937C0161
S1131360E901C02ED12EDC0118968D919C9119971C
S1131370681779070CF049C01A968D919C911B97B8
S1131380481759070CF041C09A012C0F3D1F2150FA
S11313903109281739071CF0EC01C41BD50B8A014D
S11313A00C0F1D1F015011099B01C7010E941A094E
S11313B01D2D0C2DD7015E96ED91FC915F979081C8
S11313C09D968C919D97892B80839296ED91FC91AB
S11313D0939790819C968C91809589238083209704
S11313E051F0612FC7010E948606602FC7010E9439
S11313F086062197B1F7D7019296ED91FC919397C8
S113140090819C968C91892B8083DF91CF911F9141
S11314100F91FF90EF90DF90CF900895CF92DF92DD
S1131420EF92FF920F931F93CF93DF937C01E90117
S1131430C02ED12EDC0118968D919C9119976817B6
S113144079070CF049C01A962D913C911B974217CD
S113145053070CF041C09B012C0F3D1F2150310953
S1131460281739071CF0EC01C61BD70B9B012C0F66
S11314703D1F215031098A01C7010E941A091D2DFF
S11314800C2DD7015E96ED91FC915F9790819D960E
S11314908C919D97892B80839296ED91FC919397E3
S11314A090819C968C91809589238083209751F01C
S11314B0612FC7010E948606602FC7010E9486061D
S11314C02197B1F7D7019296ED91FC919397908172
S11314D09C968C91892B8083DF91CF911F910F91E2
S11314E0FF90EF90DF90CF9008958F929F92AF92EC
S11314F0BF92CF92DF92EF92FF920F931F93CF93FD
S1131500DF936C015901E801DC0118968D919C91DF
S11315101997681779070CF063C01A962D913C91BE
S11315201B97421753070CF05BC0FB01EA0DFB1D30
S11315303197E817F9071CF05C01A61AB70ACA012B
S11315408C0F9D1F0197821793071CF0E901C41BA0
S1131550D50B8A010C0F1D1F015011099B012A0D87
S11315603B1D21503109C6010E941A09D6015E961D
S1131570ED91FC915F9790819D968C919D97892B1D
S113158080839296ED91FC91939790819C968C9197
S11315908095892380831C161D068CF017C0C82DE6
S11315A0D92D6F2DC6010E9486066E2DC6010E949C
S11315B086062197B1F70150110921F407C08E0165
S11315C08A2C9B2C1A141B0454F3F5CFD601929643
S11315D0ED91FC91939790819C968C91892B8083BB
S11315E0DF91CF911F910F91FF90EF90DF90CF90FB
S11315F0BF90AF909F908F900895ECE7F0E09081BA
S11316008F70907F892B8083EAE7F0E0808180648B
S11316108083808186FDFDCF809178009091790050
S1131620089580E090E00E94FD0A21E08831914015
S11316300CF020E0822F0895FC0120813181828505
S11316409385281B390B81E0233231050CF480E0AB
S11316500895AC0126E930E0281B390B1816190649
S1131660C4F4E1E0F0E098B1962B98B98EE28A9543
S1131670F1F7000098B18E2F6115710509F08F2FD5
S1131680982398B98EE28A95F1F7000041505109E8
S113169051F7121613063CF48CE58A95F1F700C055
S11316A021503109C9F70895F894909103018913E1
S11316B028C06115710529F48FEF8BB987E08BB9C8
S11316C055C06130710529F48FEF8BB983E08BB974
S11316D04DC06230710529F48FEF8BB983E08BB96B
S11316E045C06330710529F48FEF8BB98FE08BB956
S11316F03DC06430710549F58FEF8BB98FE08BB92C
S113170035C090910201891320C06130710529F41C
S11317108FEF8BB98FE38BB929C06230710529F43F
S11317208FEF8BB98FE38BB921C06330710529F436
S11317308FEF8BB98FE78BB919C06430710529F429
S11317408FEF8BB98FE78BB911C090910101891389
S113175005C08FEF8BB98FE18BB908C09091000160
S1131760891304C08FEF8BB983E08BB97894089503
S113177029E048E06AE084E092E00E946606089569
S1131780CF93DF9360E070E084E092E00E9448062B
S11317900E94721446E150E060E070E084E092E060
S11317A00E9436066FEF7FEF84E092E00E944206CB
S11317B064E084E092E00E943C066EE371E084E021
S11317C092E00E941C134DE750E060E070E084E07A
S11317D092E00E9436066FEF7FEF84E092E00E9471
S11317E0420664E084E092E00E943C0666E471E014
S11317F084E092E00E941C1340E050E06CE271E04F
S113180084E092E00E94360660E078EF84E092E0A3
S11318100E94420667E084E092E00E943C068091C8
S1131820020290910302992384F0C0E0D0E06CE4BA
S113183071E084E092E00E941C13219680910202E0
S1131840909103028C179D0794F74DE750E06CE2EA
S113185071E084E092E00E94360660EE77E084E076
S113186092E00E94420664E084E092E00E943C061A
S11318708091000290910102992384F0C0E0D0E0AD
S11318806EE471E084E092E00E941C132196809142
S11318900002909101028C179D0794F742ED50E0ED
S11318A060E070E084E092E00E9436066FEF7FEF24
S11318B084E092E00E94420664E084E092E00E94A8
S11318C03C0660E571E084E092E00E941C13DF9125
S11318D0CF91089585E090E09093030280930202F3
S11318E08AE090E090930102809300021092FF013D
S11318F01092FE0180E480937C0087E880937A0054
S11319008EED87B981E080936E0095E095BD85BB2F
S113191078948FEF8AB91BB82FEF35EA9EE02150F7
S113192030409040E1F700C000008BB926E040E071
S113193052EC61E070E082E392E00E94851184E061
S113194092E00E9404070E94C00B0895CF92DF9298
S1131950EF92FF920F931F93CF93DF938C01EB01D0
S11319606EE675E082E392E00E94F31280910A0130
S113197090910B010817190709F04BC0E12CF12CC9
S113198007E310E028E131E04BE950E060E070E06B
S113199084E092E00E94750A40E750E06CE271E056
S11319A084E092E00E9436066FEF77E084E092E0F4
S11319B00E94420662E084E092E00E943C0667E5F1
S11319C071E084E092E00E941C134DE750E06CE269
S11319D071E084E092E00E94360660EE77E084E0F5
S11319E092E00E94420664E084E092E00E943C0699
S11319F0DD230CF43FC100E010E06EE471E084E00C
S1131A0092E00E941C130F5F1F4FC017D107ACF761
S1131A1031C180910801909109010817190729F52E
S1131A208BE38C9F60018D9FD00C11240F2EF0EE60
S1131A30EF2EFF24FA94F02D0CE310E0960145EF0D
S1131A4050E065E070E084E092E00E94750AB6011F
S1131A506B5F7F4FE12CF12C28E131E045EF50E042
S1131A6084E092E00E94750A05C18091060190917C
S1131A7007010817190709F060C0209761F560E0B5
S1131A8070E084E092E00E9448064FE050E060E09D
S1131A9070E084E092E00E9436066FEF7FEF84E00E
S1131AA092E00E94420664E084E092E00E943C06D8
S1131AB06DE671E084E092E00E941C1360E078EF30
S1131AC084E092E00E94420669EA71E084E092E0D8
S1131AD00E941C13CFC0E12CF12C0CE310E028E190
S1131AE031E042E350E060E070E084E092E00E9484
S1131AF0750A40E050E06CE271E084E092E00E94FC
S1131B00360660E078EF84E092E00E94420667E0E7
S1131B1084E092E00E943C06DD230CF4ABC000E0BC
S1131B2010E06CE471E084E092E00E941C130F5F0B
S1131B301F4FC017D107ACF79DC080910C01909145
S1131B400D0108171907F1F5E12CF12C0CE310E055
S1131B5028E131E045EF50E060E070E084E092E09D
S1131B600E94750A08E210E028E131E04CE950E0F7
S1131B7060E070E084E092E00E94750A4DE750E076
S1131B806CE271E084E092E00E94360660EE77E059
S1131B9084E092E00E94420664E084E092E00E94C5
S1131BA03C06DD230CF466C000E010E06EE471E056
S1131BB084E092E00E941C130F5F1F4FC017D107EF
S1131BC0ACF758C00A30110579F4E12CF12C0EE180
S1131BD010E028E131E048E750E068E770E084E095
S1131BE092E00E94750A46C00530110521F58BE389
S1131BF08C9F60018D9FD00C11240F2EE12CF8EFE7
S1131C00FF2EF02D0CE310E0960145EF50E065E067
S1131C1070E084E092E00E94750AB6016B5F7F4F2A
S1131C20E12CF12C28E131E045EF50E084E092E032
S1131C300E94750A1FC060E070E084E092E00E9498
S1131C4048064FE050E060E070E084E092E00E94DB
S1131C5036066FEF7FEF84E092E00E94420664E074
S1131C6084E092E00E943C0662EB71E084E092E042
S1131C700E941C1368E675E082E392E00E9446131A
S1131C80DF91CF911F910F91FF90EF90DF90CF9054
S1131C9008951F920F920FB60F9211242F933F9322
S1131CA04F935F936F937F938F939F93AF93BF9360
S1131CB0EF93FF938091FE019091FF018639910586
S1131CC0C1F460910002709101026A307105ECF474
S1131CD01092FF011092FE016F5F7F4F709301021B
S1131CE06093000280910C0190910D010E94A60C5A
S1131CF00CC020910002309101022A3031052CF4ED
S1131D0001969093FF018093FE01FF91EF91BF91A3
S1131D10AF919F918F917F916F915F914F913F917F
S1131D202F910F900FBE0F901F9018951092FF01E6
S1131D301092FE0160E070E080910A0190910B0125
S1131D400E94A60C60E070E0809101010E94540B97
S1131D5080910002909101020397C4F424E535E8D0
S1131D6085E491E02150304080409040D9F700C094
S1131D7000C0000060E070E08AE090E00E94A60CE1
S1131D808091000290910102039744F38FEF8BB985
S1131D908091020290910302019790930302809331
S1131DA002028091020290910302992314F4F894A0
S1131DB0089560910202709103028091060190914E
S1131DC007010E94A60C0895CF92DF92EF92FF9232
S1131DD00F931F93CF93DF93CDB7DEB768970FB6FA
S1131DE0F894DEBF0FBECDBF88E191E09E878D875A
S1131DF0988B8F879A8B898B9C8B8B8B9E8B8D8BEF
S1131E00988F8F8B80E090E00E94FD0AE12CF12CEA
S1131E108E01035F1F4F86C080E090E00E94FD0AA0
S1131E206C010E94110B8111C3C08D859E85883180
S1131E3091400CF0BDC0AFC0B701809103010E9476
S1131E40540B84E1C81681E0D80684F426EFC21648
S1131E50D10484F061E070E080910801909109015F
S1131E600E94A60CEE24E394F12C3BC086EFC81626
S1131E70D1048CF422EEC216D1048CF062E070E03E
S1131E8080910801909109010E94A60C6894EE24A7
S1131E90E1F8F12C26C082EEC816D10494F42EEC9D
S1131EA0C216D10494F063E070E08091080190912F
S1131EB009010E94A60C0F2EF3E0EF2EF12CF02D59
S1131EC010C08EECC816D10464F464E070E0809114
S1131ED00801909109010E94A60C6894EE24E2F88E
S1131EE0F12CDA82C9828D859E859C838B838F85B4
S1131EF098899E838D8389899A8998878F838B8912
S1131F009C899A8789878D899E899C878B87FE0106
S1131F103196D801C801219131912D933D93E81751
S1131F20F907C9F7C8010E941C0B882309F474CF70
S1131F308F89988D843121E0920724F4863F91059E
S1131F4024F01AC0863F910524F4823E9105C4F41E
S1131F5003C0823E910544F48E3C9105B4F4689428
S1131F60EE24E2F8F12C29C08E3C910534F56894F6
S1131F70EE24E2F8F12C21C0EE24E394F12C1DC0F0
S1131F806894EE24E1F8F12C18C00F2EF3E0EF2E44
S1131F90F12CF02D12C060E070E080910801909166
S1131FA009010E94A60C8FEF8BB9E12CF12CC0CF54
S1131FB01E141F040CF440CF44CFC70168960FB61B
S1131FC0F894DEBF0FBECDBFDF91CF911F910F916B
S1131FD0FF90EF90DF90CF9008950F931F93CF93CE
S1131FE0DF93181619060CF05DC0209100023091A1
S1131FF00102281B390B4AF41092010210920002CC
S11320001092FF011092FE0139C030930102209317
S113201000021092FF011092FE0130C060E170E0F6
S11320208AE090E00E94290B60E170E084E190E096
S11320300E94290B60E170E084E190E00E94290B8A
S113204060E170E086E990E00E94290B2FEF80E7C1
S113205092E0215080409040E1F700C000002196BA
S1132060C017D107D9F660910002709101028091E6
S11320700C0190910D010E94A60C14C08C01BC01AE
S1132080809102010E94540B2FEF85EA9EE02150BB
S113209080409040E1F700C000008FEF8BB9C0E0B2
S11320A0D0E0BCCFDF91CF911F910F910895CF93D2
S11320B0DF9323C080910002909101021816190643
S11320C014F00E94960E0E94110B8823B1F060E078
S11320D070E0809103010E94540B0E94E40EEC0115
S11320E01816190654F4BC0180910401909105015D
S11320F00E94A60CCE010E94ED0F809102029091E5
S1132100030218161906B4F2C5E0D0E068E070E0E6
S11321108AE090E00E94290B68E070E088E290E099
S11321200E94290B68E070E088E290E00E94290B8D
S113213068E070E086E990E00E94290B2FEF80E7C9
S113214092E0215080409040E1F700C000002197C8
S1132150E9F6DF91CF9108950E946A0C0E9457100E
S1132160F89460E070E084E090E00E94A60C80E0C7
S113217090E008950E945F15FC01918D228D892FB6
S113218090E0805C9F4F821B91098F73992708957B
S1132190FC01918D828D981731F0828DE80FF11D2D
S11321A0858D90E008958FEF9FEF0895FC01918D48
S11321B0828D981761F0828DDF01A80FB11D5D96A5
S11321C08C91928D9F5F9F73928F90E008958FEF13
S11321D09FEF0895FC01848DDF01A80FB11DA35A60
S11321E0BF4F8C91248D30E02F5F3F4F2F73307899
S11321F0332334F421503109206C3F6F2F5F3F4F5C
S1132200248FA689B7898C93A089B1898C91806425
S11322108C93938D848D981306C00288F389E02DE6
S113222080818F7D80830895CF93DF93EC01888D27
S113223081110FC018C00FB607FC0DC0908195FF27
S11322400AC0A889B9898C9185FF05C0CE010E9476
S1132250EA10EA89FB89908195FDEDCFA889B989B7
S11322608C9186FFE8CFDF91CF9108950F931F9350
S1132270CF93DF93FC0181E0808F938D848D98133D
S113228022C0A089B1898C9185FD2FC01CC00FB6D6
S113229007FC08C0E889F989808185FF03C0CE0165
S11322A00E94EA109C8D091791F38B8DFE01E80FB3
S11322B0F11DE35AFF4F10830B8FEA89FB8980815C
S11322C0806280831BC0238D30E02F5F3F4F2F73CC
S11322D03078332334F421503109206C3F6F2F5F61
S11322E03F4F162FEF01022FDDCFA689B7896C93DC
S11322F00088F189E02D80818064808381E090E012
S1132300DF91CF911F910F910895BF92CF92DF92E9
S1132310EF92FF920F931F93CF93DF93EC016A0127
S11323207B01B22EE889F98982E080834115514E00
S113233061057105B1F060E079E08DE390E0A701FB
S113234096010E94371589019A010150110921094A
S113235031093695279517950795011580E11807DA
S1132360A8F0E889F989108260E874E88EE190E0C9
S1132370A70196010E943715DA01C9010197A10945
S1132380B109B695A795979587958C01EC85FD8540
S11323901083EE85FF850083188EEC89FD89B08259
S11323A0EA89FB89808180618083EA89FB89808155
S11323B088608083EA89FB89808180688083EA89D8
S11323C0FB8980818F7D8083DF91CF911F910F9155
S11323D0FF90EF90DF90CF90BF9008951F920F92DF
S11323E00FB60F9211242F938F939F93AF93BF93A4
S11323F0EF93FF93E0914202F0914302808182FDCA
S113240014C0E2E3F2E0A689B7892C91818D8F5F35
S11324108F73928D891771F0DF01E18DF0E0EE5C2E
S1132420FD4F258F59968C9305C0E0914802F09199
S113243049028081FF91EF91BF91AF919F918F915C
S11324402F910F900FBE0F901F9018951F920F920F
S11324500FB60F9211242F933F934F935F936F9373
S11324607F938F939F93AF93BF93EF93FF9382E3F5
S113247092E00E94EA10FF91EF91BF91AF919F917A
S11324808F917F916F915F914F913F912F910F9019
S11324900FBE0F901F901895E2E3F2E013821282B0
S11324A088EE93E0A0E0B0E084839583A683B783AD
S11324B08DED91E09183808385EC90E0958784870E
S11324C084EC90E09787868780EC90E0918B808BFA
S11324D081EC90E0938B828B82EC90E0958B848BE3
S11324E086EC90E0978B868B118E128E138E148E51
S11324F008958F929F92AF92BF92CF92DF92EF9204
S1132500FF920F931F93CF93DF935C017B014C01E8
S113251082E0880E911C6501E5E0CE0ED11C00E03E
S113252010E0F40161914F014AE050E0C7010E94BC
S1132530DA13EC016EE2C7010E9432138C0F9D1F67
S1132540080F191F8C149D0461F74AE050E0F5014F
S11325506581C7010E94DA13800F911FDF91CF912B
S11325601F910F91FF90EF90DF90CF90BF90AF90AD
S11325709F908F900895EFECF2E08DEE91E09183BF
S1132580808312821382148215820895CF92DF927F
S1132590EF92FF920F931F93CF93DF934115510551
S11325A0B1F08C01E62EF72EEA01C12CD12CD70113
S11325B06D917D01D801ED91FC910190F081E02DA8
S11325C0C8010995C80ED91E219789F702C0C12CEC
S11325D0D12CC601DF91CF911F910F91FF90EF9005
S11325E0DF90CF900895EF92FF920F931F93CF93B4
S11325F0DF93EB012196FB016491662399F08C0132
S1132600E12CF12CD801ED91FC910190F081E02DA9
S1132610C8010995E80EF91EFE0164912196611125
S1132620F1CF02C0E12CF12CC701DF91CF911F91B2
S11326300F91FF90EF9008956115710581F0FB01F2
S113264001900020E9F73197AF01461B570BDC01DD
S1132650ED91FC910280F381E02D0995089580E0CD
S113266090E00895DC01ED91FC910190F081E02D62
S113267009950895DC01ED91FC910280F381E02D30
S113268042E050E06FEE71E0099508950F931F93B7
S1132690CF93DF93EC010E94F3128C01CE010E94D0
S11326A03A13800F911FDF91CF911F910F910895DD
S11326B04F925F926F927F929F92AF92BF92CF920E
S11326C0DF92EF92FF920F931F93CF93DF93CDB7D7
S11326D0DEB7A1970FB6F894DEBF0FBECDBF5C0185
S11326E06A017B01922E19A281E0821720F00F2E3D
S11326F0FAE09F2EF02D8E010F5D1F4F492C512CB7
S1132700612C712CC701B601A30192010E943715F7
S11327108C2D929E80191124015011098A3010F4D5
S1132720805D01C0895CD8018C93C22ED32EE42E27
S1132730F52EC114D104E104F10421F701151105AA
S113274091F0F80101900020E9F73197AF01401BA7
S1132750510BD501ED91FC910280F381E02DB8017C
S1132760C501099502C080E090E0A1960FB6F894E7
S1132770DEBF0FBECDBFDF91CF911F910F91FF90B0
S1132780EF90DF90CF90BF90AF909F907F906F902D
S11327905F904F9008952115310549F4DC01ED91C6
S11327A0FC910190F081E02D642F099508950E9419
S11327B0581308959A01462F50E060E070E00E949B
S11327C0CB130895CF93CFB7F8948091D50281119C
S11327D027C0E6EAF5E08491E2E9F5E09491E82F78
S11327E0F0E0EE0FFF1FE654FA4FA591B491EC917F
S11327F0E92321F461E08AE00E94061561E08AE0A1
S11328000E94C7148CB580618CBD8CB580648CBD6E
S113281061E08DE00E94C71461E08BE00E94C71460
S11328208091D5028F5F8093D502CFBFCF91089559
S11328301F920F920FB60F9211242F933F934F9331
S11328405F936F937F938F939F93AF93BF93EF9314
S1132850FF938091D6029091D702892B29F0E091C1
S1132860D602F091D7020995FF91EF91BF91AF91F4
S11328709F918F917F916F915F914F913F912F9194
S11328800F900FBE0F901F9018951F920F920FB6C6
S11328900F9211242F933F934F935F936F937F93E2
S11328A08F939F93AF93BF93EF93FF938091D8023D
S11328B09091D902892B29F0E091D802F091D902A4
S11328C00995FF91EF91BF91AF919F918F917F9166
S11328D06F915F914F913F912F910F900FBE0F9089
S11328E01F9018953FB7F8948091DA029091DB021B
S11328F0A091DC02B091DD0226B5A89B05C02F3F54
S113290019F00196A11DB11D3FBFBA2FA92F982F11
S11329108827820F911DA11DB11DBC01CD01660F39
S1132920771F881F991F660F771F881F991F0895A7
S1132930833069F028F48130B1F08230C1F0089519
S11329408730C9F08830E9F0843001F506C0E0E84A
S1132950F0E080818F7780830895E0E8F0E0808163
S11329608F7D8083089584B58F7784BD089584B561
S11329708F7D84BD0895E0EBF0E080818F778083C4
S11329800895E0EBF0E080818F7D80830895CF93FC
S1132990DF9390E0FC01E857FA4F2491FC01E456E0
S11329A0FA4F8491882379F190E0880F991FFC01F4
S11329B0E654FA4FA591B491FC01E055FA4FC59144
S11329C0D49161110CC09FB7F8948C91E22FE095DB
S11329D08E238C932881E223E8839FBF14C0623046
S11329E061F49FB7F8943C91822F809583238C9354
S11329F0E881E22BE8839FBF06C08FB7F894EC917F
S1132A00E22BEC938FBFDF91CF9108951F93CF9367
S1132A10DF93282F30E0F901EC58FA4F8491F90143
S1132A20E857FA4F1491F901E456FA4FC491CC23B4
S1132A30D1F0D62F81110E949814EC2FF0E0EE0F04
S1132A40FF1FE055FA4FA591B4918FB7F894D111B7
S1132A5006C09C91E12FE095E923EC9303C0EC912F
S1132A60E12BEC938FBFDF91CF911F910895A1E2E9
S1132A701A2EAA1BBB1BFD010DC0AA1FBB1FEE1FF4
S1132A80FF1FA217B307E407F50720F0A21BB30B3F
S1132A90E40BF50B661F771F881F991F1A9469F7BB
S1132AA060957095809590959B01AC01BD01CF0117
S1132AB00895EE0FFF1F0590F491E02D099481E035
S10F2AC090E0F8940C946415F894FFCF97
S1132ACC04030201050004000300020001000000DD
S1132ADC0000D805C612BA100F0323043A04D40319
S1132AEC50048804A60400000000D805C61261092D
S1132AFC0F03A7090E0AD403750A4806D9064865BC
S1132B0C616C74683A004D616E613A000300050013
S1132B1C506F7765723A002020202020202020203E
S1132B2C202028436F6F6C646F776E29002020205F
S1132B3C596F7572202020776561706F6E20686103
S1132B4C7320206E6F206D6F7265206865616C74E4
S1132B5C6820616E6420206973206E6F77202020BA
S1132B6C20206465616421200020202020203A2844
S1132B7C2000496E76616C6964206461746120770D
S1132B8C61732070617373656420617320616E20BE
S1132B9C656C656D656E742E00000000003611C600
S1132BAC12BC10D610C81014110000000079120DBC
S1112BBC0A006E616E00696E66006F76660038
S9030000FC
